{
	"Turismo.sol": {
		"Storage": {
			"abi": [
				{
					"inputs": [
						{
							"internalType": "uint256",
							"name": "appr_",
							"type": "uint256"
						}
					],
					"name": "appr",
					"outputs": [
						{
							"internalType": "uint256",
							"name": "",
							"type": "uint256"
						}
					],
					"stateMutability": "nonpayable",
					"type": "function"
				},
				{
					"inputs": [
						{
							"internalType": "uint256",
							"name": "orime",
							"type": "uint256"
						}
					],
					"name": "change",
					"outputs": [
						{
							"internalType": "uint256",
							"name": "",
							"type": "uint256"
						}
					],
					"stateMutability": "nonpayable",
					"type": "function"
				},
				{
					"inputs": [],
					"name": "derime",
					"outputs": [
						{
							"internalType": "uint256",
							"name": "",
							"type": "uint256"
						}
					],
					"stateMutability": "view",
					"type": "function"
				},
				{
					"inputs": [],
					"name": "koala",
					"outputs": [
						{
							"internalType": "uint256",
							"name": "",
							"type": "uint256"
						}
					],
					"stateMutability": "view",
					"type": "function"
				}
			],
			"devdoc": {
				"kind": "dev",
				"methods": {},
				"version": 1
			},
			"evm": {
				"assembly": "    /* \"Turismo.sol\":69:451  contract Storage {\r... */\n  mstore(0x40, 0x80)\n  callvalue\n  dup1\n  iszero\n  tag_1\n  jumpi\n  0x00\n  dup1\n  revert\ntag_1:\n  pop\n  dataSize(sub_0)\n  dup1\n  dataOffset(sub_0)\n  0x00\n  codecopy\n  0x00\n  return\nstop\n\nsub_0: assembly {\n        /* \"Turismo.sol\":69:451  contract Storage {\r... */\n      mstore(0x40, 0x80)\n      callvalue\n      dup1\n      iszero\n      tag_1\n      jumpi\n      0x00\n      dup1\n      revert\n    tag_1:\n      pop\n      jumpi(tag_2, lt(calldatasize, 0x04))\n      shr(0xe0, calldataload(0x00))\n      dup1\n      0x75322e47\n      eq\n      tag_3\n      jumpi\n      dup1\n      0x931e7bf9\n      eq\n      tag_4\n      jumpi\n      dup1\n      0x9a5f9ec6\n      eq\n      tag_5\n      jumpi\n      dup1\n      0xd2367f01\n      eq\n      tag_6\n      jumpi\n    tag_2:\n      0x00\n      dup1\n      revert\n        /* \"Turismo.sol\":220:333  function change(uint orime) public approve returns(uint){\r... */\n    tag_3:\n      tag_7\n      0x04\n      dup1\n      calldatasize\n      sub\n      dup2\n      add\n      swap1\n      tag_8\n      swap2\n      swap1\n      tag_9\n      jump\t// in\n    tag_8:\n      tag_10\n      jump\t// in\n    tag_7:\n      mload(0x40)\n      tag_11\n      swap2\n      swap1\n      tag_12\n      jump\t// in\n    tag_11:\n      mload(0x40)\n      dup1\n      swap2\n      sub\n      swap1\n      return\n        /* \"Turismo.sol\":119:137  uint public derime */\n    tag_4:\n      tag_13\n      tag_14\n      jump\t// in\n    tag_13:\n      mload(0x40)\n      tag_15\n      swap2\n      swap1\n      tag_12\n      jump\t// in\n    tag_15:\n      mload(0x40)\n      dup1\n      swap2\n      sub\n      swap1\n      return\n        /* \"Turismo.sol\":95:112  uint public koala */\n    tag_5:\n      tag_16\n      tag_17\n      jump\t// in\n    tag_16:\n      mload(0x40)\n      tag_18\n      swap2\n      swap1\n      tag_12\n      jump\t// in\n    tag_18:\n      mload(0x40)\n      dup1\n      swap2\n      sub\n      swap1\n      return\n        /* \"Turismo.sol\":341:442  function appr(uint appr_) public returns(uint){\r... */\n    tag_6:\n      tag_19\n      0x04\n      dup1\n      calldatasize\n      sub\n      dup2\n      add\n      swap1\n      tag_20\n      swap2\n      swap1\n      tag_9\n      jump\t// in\n    tag_20:\n      tag_21\n      jump\t// in\n    tag_19:\n      mload(0x40)\n      tag_22\n      swap2\n      swap1\n      tag_12\n      jump\t// in\n    tag_22:\n      mload(0x40)\n      dup1\n      swap2\n      sub\n      swap1\n      return\n        /* \"Turismo.sol\":220:333  function change(uint orime) public approve returns(uint){\r... */\n    tag_10:\n        /* \"Turismo.sol\":271:275  uint */\n      0x00\n        /* \"Turismo.sol\":190:191  2 */\n      0x02\n        /* \"Turismo.sol\":181:186  koala */\n      sload(0x00)\n        /* \"Turismo.sol\":181:191  koala == 2 */\n      eq\n        /* \"Turismo.sol\":173:192  require(koala == 2) */\n      tag_24\n      jumpi\n      0x00\n      dup1\n      revert\n    tag_24:\n        /* \"Turismo.sol\":296:301  orime */\n      dup2\n        /* \"Turismo.sol\":287:293  derime */\n      0x01\n        /* \"Turismo.sol\":287:301  derime = orime */\n      dup2\n      swap1\n      sstore\n      pop\n        /* \"Turismo.sol\":319:325  derime */\n      sload(0x01)\n        /* \"Turismo.sol\":312:325  return derime */\n      swap1\n      pop\n        /* \"Turismo.sol\":220:333  function change(uint orime) public approve returns(uint){\r... */\n      swap2\n      swap1\n      pop\n      jump\t// out\n        /* \"Turismo.sol\":119:137  uint public derime */\n    tag_14:\n      sload(0x01)\n      dup2\n      jump\t// out\n        /* \"Turismo.sol\":95:112  uint public koala */\n    tag_17:\n      sload(0x00)\n      dup2\n      jump\t// out\n        /* \"Turismo.sol\":341:442  function appr(uint appr_) public returns(uint){\r... */\n    tag_21:\n        /* \"Turismo.sol\":382:386  uint */\n      0x00\n        /* \"Turismo.sol\":406:411  appr_ */\n      dup2\n        /* \"Turismo.sol\":398:403  koala */\n      0x00\n        /* \"Turismo.sol\":398:411  koala = appr_ */\n      dup2\n      swap1\n      sstore\n      pop\n        /* \"Turismo.sol\":429:434  koala */\n      sload(0x00)\n        /* \"Turismo.sol\":422:434  return koala */\n      swap1\n      pop\n        /* \"Turismo.sol\":341:442  function appr(uint appr_) public returns(uint){\r... */\n      swap2\n      swap1\n      pop\n      jump\t// out\n        /* \"#utility.yul\":7:146   */\n    tag_28:\n      0x00\n        /* \"#utility.yul\":91:97   */\n      dup2\n        /* \"#utility.yul\":78:98   */\n      calldataload\n        /* \"#utility.yul\":69:98   */\n      swap1\n      pop\n        /* \"#utility.yul\":107:140   */\n      tag_30\n        /* \"#utility.yul\":134:139   */\n      dup2\n        /* \"#utility.yul\":107:140   */\n      tag_31\n      jump\t// in\n    tag_30:\n        /* \"#utility.yul\":59:146   */\n      swap3\n      swap2\n      pop\n      pop\n      jump\t// out\n        /* \"#utility.yul\":152:414   */\n    tag_9:\n      0x00\n        /* \"#utility.yul\":260:262   */\n      0x20\n        /* \"#utility.yul\":248:257   */\n      dup3\n        /* \"#utility.yul\":239:246   */\n      dup5\n        /* \"#utility.yul\":235:258   */\n      sub\n        /* \"#utility.yul\":231:263   */\n      slt\n        /* \"#utility.yul\":228:230   */\n      iszero\n      tag_33\n      jumpi\n        /* \"#utility.yul\":276:277   */\n      0x00\n        /* \"#utility.yul\":273:274   */\n      dup1\n        /* \"#utility.yul\":266:278   */\n      revert\n        /* \"#utility.yul\":228:230   */\n    tag_33:\n        /* \"#utility.yul\":319:320   */\n      0x00\n        /* \"#utility.yul\":344:397   */\n      tag_34\n        /* \"#utility.yul\":389:396   */\n      dup5\n        /* \"#utility.yul\":380:386   */\n      dup3\n        /* \"#utility.yul\":369:378   */\n      dup6\n        /* \"#utility.yul\":365:387   */\n      add\n        /* \"#utility.yul\":344:397   */\n      tag_28\n      jump\t// in\n    tag_34:\n        /* \"#utility.yul\":334:397   */\n      swap2\n      pop\n        /* \"#utility.yul\":290:407   */\n      pop\n        /* \"#utility.yul\":218:414   */\n      swap3\n      swap2\n      pop\n      pop\n      jump\t// out\n        /* \"#utility.yul\":420:538   */\n    tag_35:\n        /* \"#utility.yul\":507:531   */\n      tag_37\n        /* \"#utility.yul\":525:530   */\n      dup2\n        /* \"#utility.yul\":507:531   */\n      tag_38\n      jump\t// in\n    tag_37:\n        /* \"#utility.yul\":502:505   */\n      dup3\n        /* \"#utility.yul\":495:532   */\n      mstore\n        /* \"#utility.yul\":485:538   */\n      pop\n      pop\n      jump\t// out\n        /* \"#utility.yul\":544:766   */\n    tag_12:\n      0x00\n        /* \"#utility.yul\":675:677   */\n      0x20\n        /* \"#utility.yul\":664:673   */\n      dup3\n        /* \"#utility.yul\":660:678   */\n      add\n        /* \"#utility.yul\":652:678   */\n      swap1\n      pop\n        /* \"#utility.yul\":688:759   */\n      tag_40\n        /* \"#utility.yul\":756:757   */\n      0x00\n        /* \"#utility.yul\":745:754   */\n      dup4\n        /* \"#utility.yul\":741:758   */\n      add\n        /* \"#utility.yul\":732:738   */\n      dup5\n        /* \"#utility.yul\":688:759   */\n      tag_35\n      jump\t// in\n    tag_40:\n        /* \"#utility.yul\":642:766   */\n      swap3\n      swap2\n      pop\n      pop\n      jump\t// out\n        /* \"#utility.yul\":772:849   */\n    tag_38:\n      0x00\n        /* \"#utility.yul\":838:843   */\n      dup2\n        /* \"#utility.yul\":827:843   */\n      swap1\n      pop\n        /* \"#utility.yul\":817:849   */\n      swap2\n      swap1\n      pop\n      jump\t// out\n        /* \"#utility.yul\":855:977   */\n    tag_31:\n        /* \"#utility.yul\":928:952   */\n      tag_43\n        /* \"#utility.yul\":946:951   */\n      dup2\n        /* \"#utility.yul\":928:952   */\n      tag_38\n      jump\t// in\n    tag_43:\n        /* \"#utility.yul\":921:926   */\n      dup2\n        /* \"#utility.yul\":918:953   */\n      eq\n        /* \"#utility.yul\":908:910   */\n      tag_44\n      jumpi\n        /* \"#utility.yul\":967:968   */\n      0x00\n        /* \"#utility.yul\":964:965   */\n      dup1\n        /* \"#utility.yul\":957:969   */\n      revert\n        /* \"#utility.yul\":908:910   */\n    tag_44:\n        /* \"#utility.yul\":898:977   */\n      pop\n      jump\t// out\n\n    auxdata: 0xa26469706673582212206a8273189af4a3cca1e6c1e882430a0b362963e5b725931afd302d4888cc924564736f6c63430008000033\n}\n",
				"bytecode": {
					"linkReferences": {},
					"object": "608060405234801561001057600080fd5b506101ed806100206000396000f3fe608060405234801561001057600080fd5b506004361061004c5760003560e01c806375322e4714610051578063931e7bf9146100815780639a5f9ec61461009f578063d2367f01146100bd575b600080fd5b61006b60048036038101906100669190610143565b6100ed565b604051610078919061017b565b60405180910390f35b61008961010f565b604051610096919061017b565b60405180910390f35b6100a7610115565b6040516100b4919061017b565b60405180910390f35b6100d760048036038101906100d29190610143565b61011b565b6040516100e4919061017b565b60405180910390f35b60006002600054146100fe57600080fd5b816001819055506001549050919050565b60015481565b60005481565b6000816000819055506000549050919050565b60008135905061013d816101a0565b92915050565b60006020828403121561015557600080fd5b60006101638482850161012e565b91505092915050565b61017581610196565b82525050565b6000602082019050610190600083018461016c565b92915050565b6000819050919050565b6101a981610196565b81146101b457600080fd5b5056fea26469706673582212206a8273189af4a3cca1e6c1e882430a0b362963e5b725931afd302d4888cc924564736f6c63430008000033",
					"opcodes": "PUSH1 0x80 PUSH1 0x40 MSTORE CALLVALUE DUP1 ISZERO PUSH2 0x10 JUMPI PUSH1 0x0 DUP1 REVERT JUMPDEST POP PUSH2 0x1ED DUP1 PUSH2 0x20 PUSH1 0x0 CODECOPY PUSH1 0x0 RETURN INVALID PUSH1 0x80 PUSH1 0x40 MSTORE CALLVALUE DUP1 ISZERO PUSH2 0x10 JUMPI PUSH1 0x0 DUP1 REVERT JUMPDEST POP PUSH1 0x4 CALLDATASIZE LT PUSH2 0x4C JUMPI PUSH1 0x0 CALLDATALOAD PUSH1 0xE0 SHR DUP1 PUSH4 0x75322E47 EQ PUSH2 0x51 JUMPI DUP1 PUSH4 0x931E7BF9 EQ PUSH2 0x81 JUMPI DUP1 PUSH4 0x9A5F9EC6 EQ PUSH2 0x9F JUMPI DUP1 PUSH4 0xD2367F01 EQ PUSH2 0xBD JUMPI JUMPDEST PUSH1 0x0 DUP1 REVERT JUMPDEST PUSH2 0x6B PUSH1 0x4 DUP1 CALLDATASIZE SUB DUP2 ADD SWAP1 PUSH2 0x66 SWAP2 SWAP1 PUSH2 0x143 JUMP JUMPDEST PUSH2 0xED JUMP JUMPDEST PUSH1 0x40 MLOAD PUSH2 0x78 SWAP2 SWAP1 PUSH2 0x17B JUMP JUMPDEST PUSH1 0x40 MLOAD DUP1 SWAP2 SUB SWAP1 RETURN JUMPDEST PUSH2 0x89 PUSH2 0x10F JUMP JUMPDEST PUSH1 0x40 MLOAD PUSH2 0x96 SWAP2 SWAP1 PUSH2 0x17B JUMP JUMPDEST PUSH1 0x40 MLOAD DUP1 SWAP2 SUB SWAP1 RETURN JUMPDEST PUSH2 0xA7 PUSH2 0x115 JUMP JUMPDEST PUSH1 0x40 MLOAD PUSH2 0xB4 SWAP2 SWAP1 PUSH2 0x17B JUMP JUMPDEST PUSH1 0x40 MLOAD DUP1 SWAP2 SUB SWAP1 RETURN JUMPDEST PUSH2 0xD7 PUSH1 0x4 DUP1 CALLDATASIZE SUB DUP2 ADD SWAP1 PUSH2 0xD2 SWAP2 SWAP1 PUSH2 0x143 JUMP JUMPDEST PUSH2 0x11B JUMP JUMPDEST PUSH1 0x40 MLOAD PUSH2 0xE4 SWAP2 SWAP1 PUSH2 0x17B JUMP JUMPDEST PUSH1 0x40 MLOAD DUP1 SWAP2 SUB SWAP1 RETURN JUMPDEST PUSH1 0x0 PUSH1 0x2 PUSH1 0x0 SLOAD EQ PUSH2 0xFE JUMPI PUSH1 0x0 DUP1 REVERT JUMPDEST DUP2 PUSH1 0x1 DUP2 SWAP1 SSTORE POP PUSH1 0x1 SLOAD SWAP1 POP SWAP2 SWAP1 POP JUMP JUMPDEST PUSH1 0x1 SLOAD DUP2 JUMP JUMPDEST PUSH1 0x0 SLOAD DUP2 JUMP JUMPDEST PUSH1 0x0 DUP2 PUSH1 0x0 DUP2 SWAP1 SSTORE POP PUSH1 0x0 SLOAD SWAP1 POP SWAP2 SWAP1 POP JUMP JUMPDEST PUSH1 0x0 DUP2 CALLDATALOAD SWAP1 POP PUSH2 0x13D DUP2 PUSH2 0x1A0 JUMP JUMPDEST SWAP3 SWAP2 POP POP JUMP JUMPDEST PUSH1 0x0 PUSH1 0x20 DUP3 DUP5 SUB SLT ISZERO PUSH2 0x155 JUMPI PUSH1 0x0 DUP1 REVERT JUMPDEST PUSH1 0x0 PUSH2 0x163 DUP5 DUP3 DUP6 ADD PUSH2 0x12E JUMP JUMPDEST SWAP2 POP POP SWAP3 SWAP2 POP POP JUMP JUMPDEST PUSH2 0x175 DUP2 PUSH2 0x196 JUMP JUMPDEST DUP3 MSTORE POP POP JUMP JUMPDEST PUSH1 0x0 PUSH1 0x20 DUP3 ADD SWAP1 POP PUSH2 0x190 PUSH1 0x0 DUP4 ADD DUP5 PUSH2 0x16C JUMP JUMPDEST SWAP3 SWAP2 POP POP JUMP JUMPDEST PUSH1 0x0 DUP2 SWAP1 POP SWAP2 SWAP1 POP JUMP JUMPDEST PUSH2 0x1A9 DUP2 PUSH2 0x196 JUMP JUMPDEST DUP2 EQ PUSH2 0x1B4 JUMPI PUSH1 0x0 DUP1 REVERT JUMPDEST POP JUMP INVALID LOG2 PUSH5 0x6970667358 0x22 SLT KECCAK256 PUSH11 0x8273189AF4A3CCA1E6C1E8 DUP3 NUMBER EXP SIGNEXTEND CALLDATASIZE 0x29 PUSH4 0xE5B72593 BYTE REVERT ADDRESS 0x2D 0x48 DUP9 0xCC SWAP3 GASLIMIT PUSH5 0x736F6C6343 STOP ADDMOD STOP STOP CALLER "
				},
				"gasEstimates": {
					"creation": {
						"codeDepositCost": "98600",
						"executionCost": "147",
						"totalCost": "98747"
					},
					"external": {
						"appr(uint256)": "infinite",
						"change(uint256)": "infinite",
						"derime()": "1129",
						"koala()": "1151"
					}
				},
				"methodIdentifiers": {
					"appr(uint256)": "d2367f01",
					"change(uint256)": "75322e47",
					"derime()": "931e7bf9",
					"koala()": "9a5f9ec6"
				}
			},
			"storageLayout": {
				"storage": [
					{
						"astId": 3,
						"contract": "Turismo.sol:Storage",
						"label": "koala",
						"offset": 0,
						"slot": "0",
						"type": "t_uint256"
					},
					{
						"astId": 5,
						"contract": "Turismo.sol:Storage",
						"label": "derime",
						"offset": 0,
						"slot": "1",
						"type": "t_uint256"
					}
				],
				"types": {
					"t_uint256": {
						"encoding": "inplace",
						"label": "uint256",
						"numberOfBytes": "32"
					}
				}
			},
			"userdoc": {
				"kind": "user",
				"methods": {},
				"version": 1
			}
		}
	}
}